:1000000000308A0083280000FF00030E8301A10056
:100010007F08A0000A08A8008A01A00E0408A20018
:100020007708A3007808A4007908A5007A08A6003C
:100030007B08A700831383128B1D20280B185528DB
:10004000220884002308F7002408F8002508F90096
:100050002608FA002708FB0028088A00210E8300E2
:10006000FF0E7F0E0900831605108312051008305D
:10007000F8003A280000F8174B28F813AA0C0318C8
:100080000514031C051078174B287813F80B3E282D
:100090004928000005140B308400840B4D28000013
:1000A000F81B3D28781B452800348316061683125A
:1000B000061A5D284530AA0033208316861683125F
:1000C000861A65284430AA00332083160617831247
:1000D000061B6D284630AA0033208316861783122C
:1000E000861B75285430AA003320FF308316860003
:1000F00083120608A900290F80285030AA00332057
:100100000B108A112028840183131F308305831666
:100110008E1505108312051407309F008316811376
:100120000108C73908388100831290010030F800B7
:100130009200003083169200073083129F008316CE
:1001400005080330F700F70BA32883121F080C13D0
:1001500083169F0183128B15C0308B04AE28630079
:02400E00103F61
:00000001FF
;PIC16F628A
